:020000040000FA
:02000000612875
:040002000034003492
:08000800F000030EF10083017A
:100010000A08F2006008F5006108F6006208F700BF
:100020006308F8006408F9006508FA006608FB0038
:100030006708FC006808FD00A22882075434653474
:100040006D3470342E3420346D34613478343A3465
:100050002034203420342034DF34433454346534A5
:100060006D3470342E343A3420342034203420342B
:100070002034203420342034DF34433482071E34CB
:100080002E344E348E341D342D344D348D341B3487
:100090002B344B348B34173427344734873482075E
:1000A0003034313432343334343435343634373414
:1000B000383439344134423443344434453446349A
:1000C0004034850186018701880189018316031761
:1000D0008830880089010313F1308600CB30870017
:1000E000880155308100F1309500960910309F004D
:1000F0008312DA21A00120081D201922A00A103045
:100100002006031D7B28403017221030A000200855
:100110001D201922A00A20302006031D8728032253
:10012000B0010B30A800833081003E30A300DD30E9
:100130009F0006080B108B158B100B160B118B16DE
:100140008B17A1288B182B290B1DE428A30BE02863
:100150009F143E30A300B00A9F18AC281E08B300BD
:10016000A9004D214830AB00632183161E0883127D
:10017000B10003013106031DC4282E30192230308E
:10018000192230301922E02840303106031DCF28D3
:100190002E3019223230192235301922E0288030D1
:1001A0003106031DDA282E3019223530192230305D
:1001B0001922E0282E301922373019223530192221
:1001C000833081000B113329B521F0300605AE00D4
:1001D000AE0E8316C0308800FF30870000308600E6
:1001E00081138312F030860030300705AE07C0302F
:1001F0000805AE07AF012F083E202E060319072978
:10020000AF0A10302F06031DFB281030AF0028085E
:10021000AB0017222F084F201922071A0D29871A21
:100220000F29081B1129881B1329B5218316F030CB
:100230008600CF30870088018113831288018701EF
:10024000A80A0E302806031D27290B30A80006082F
:100250000B108B103329C9210715D52107118B10DD
:1002600006080B100B1100007508E0007608E1008D
:100270007708E2007808E3007908E4007A08E500EE
:100280007B08E6007C08E7007D08E80072088A0029
:10029000710E8300F00E700E0900A501A601A701E2
:1002A0006430A902031C5629A70A50296430A90703
:1002B0000A30A902031C5E29A60A58290A30A90798
:1002C0002908A50008003030A507A607A7072B08B6
:1002D00017222708192226081922250819220800A2
:1002E0000000000000000000E00B70290800620818
:1002F000E3000000000000000000E30B7929E10B9F
:10030000772908006608E7006508E800000000009B
:1003100000000000E80B8629E70B8429E40B822902
:100320000800D330E400D330E5006030E6008221DD
:1003300008000730E4003130E500F730E6008221A4
:1003400008009D30E1000730E200772108001930F5
:10035000E4002F30E5000330E60082210800C430BD
:10036000E1000E30E20077210800E830E1003D3086
:10037000E200772108000430E1008E30E2007721AE
:10038000000008000830E1002330E200772100007F
:1003900008008E30E0007021000008000430E10009
:1003A0001130E2007721000008000230E0007021E7
:1003B00000000800E830E1003D30E2007721EA214A
:1003C000EA21EA2102308800F321FF2101220922DB
:1003D0000B22080003308800F3219C30E100043038
:1003E000E2007721080088160000000000000000ED
:1003F00088120830E1002330E2007721080028301D
:10040000252A0830252A0C30252A0E30252A0F30BF
:10041000252A0130252A0630252A0230252A1C30BB
:10042000252A1830252A1430252A1030252A80380C
:10043000252AAA002A0E0F3988000816F3212A0857
:100440000F3988000816F3210800AA002A0E0F3978
:0E0450008800F3212A080F398800F3210800E4
:02400E00E423A9
:02401000FF3F70
:00000001FF
