:020000040000FA
:02000000612875
:040002000034003492
:08000800F000030EF10083017A
:100010000A08F2006008F5006108F6006208F700BF
:100020006308F8006408F9006508FA006608FB0038
:100030006708FC006808FD008E2882075434653488
:100040006D3470342E3420346D34613478343A3465
:100050002034203420342034DF34433454346534A5
:100060006D3470342E343A3420342034203420342B
:100070002034203420342034DF3443348207EE34FB
:10008000DE34BE347E34ED34DD34BD347D34EB34C7
:10009000DB34BB347B34E734D734B734773482076E
:1000A0003034313432343334343435343634373414
:1000B000383439344134423443344434453446349A
:1000C0004034850186018701880189018316031761
:1000D00089010313F030860087018801051085101F
:1000E0008113960983123621A00120081D20752155
:1000F000A00A10302006031D7528403073211030EF
:10010000A00020081D207521A00A20302006031D14
:1001100081285F2106080B108B158B172E21F030DC
:100120000605AE0083160F30860081138312860108
:100130000F300605AE07AF012F083E202E0603192B
:10014000A828AF0A10302F06031D9C281030AF00DE
:100150000A30AB0073212F084F2075210F3006069F
:10016000031DAE282E218316F030860081138312E2
:1001700006080B1000007508E0007608E10077081B
:10018000E2007808E3007908E4007A08E5007B08DB
:10019000E6007C08E7007D08E80072088A00710E1E
:1001A0008300F00E700E0900A501A601A7016430BE
:1001B000A902031CDD28A70AD7286430A9070A3042
:1001C000A902031CE528A60ADF280A30A907290886
:1001D000A50008003030A507A607A7072B08732144
:1001E00027087521260875212508752108000000BB
:1001F000000000000000E00BF72808006208E300A0
:100200000000000000000000E30B0029E10BFE28C5
:1002100008006608E7006508E8000000000000002C
:100220000000E80B0D29E70B0B29E40B0929080056
:10023000D330E400D330E5006030E6000921080047
:100240000730E4003130E500F730E600092108000E
:100250009D30E1000730E200FE2008001930E40084
:100260002F30E5000330E60009210800E830E10006
:100270003D30E200FE204621462146210230870023
:100280004F215B215D216521672108000330870034
:100290004F219C30E1000430E200FE200800871668
:1002A000000000000000000087120830E100233049
:1002B000E200FE20080028308129083081290C3016
:1002C00081290E3081290F308129013081290630A2
:1002D0008129023081291C3081291830812914306C
:1002E00081291030812980388129AA002A0E0F39EE
:1002F000870007164F212A080F39870007164F215C
:100300000800AA002A0E0F3987004F212A080F394A
:0603100087004F210800E8
:02400E00E423A9
:02401000FF3F70
:00000001FF
