:020000040000FA
:02000000612875
:040002000034003492
:08000800F000030EF10083017A
:100010000A08F2006008F5006108F6006208F700BF
:100020006308F8006408F9006508FA006608FB0038
:100030006708FC006808FD008E2882075434653488
:100040006D3470342E3420346D34613478343A3465
:100050002034203420342034DF34433454346534A5
:100060006D3470342E343A3420342034203420342B
:100070002034203420342034DF3443348207EE34FB
:10008000DE34BE347E34ED34DD34BD347D34EB34C7
:10009000DB34BB347B34E734D734B734773482076E
:1000A0003034313432343334343435343634373414
:1000B000383439344134423443344434453446349A
:1000C0004034850186018701880189018316031761
:1000D00089010313F030860087018113960983128A
:1000E0000D30A8003D21A00120081D207C21A00A80
:1000F00010302006031D742840307A211030A000F3
:1001000020081D207C21A00A20302006031D802805
:10011000662106080B108B158B178D283521F030C2
:100120000605AE0083160F30860081138312860108
:100130000F300605AE07AF012F083E202E0603192B
:10014000A828AF0A10302F06031D9C281030AF00DE
:100150002808AB007A212F084F207C210F3006069B
:10016000031DAE2835218316F030860081138312DB
:10017000A8030A302806031DBF280D30A800060872
:100180000B1000007508E0007608E1007708E20037
:100190007808E3007908E4007A08E5007B08E600C7
:1001A0007C08E7007D08E80072088A00710E830071
:1001B000F00E700E0900A501A601A7016430A90286
:1001C000031CE428A70ADE286430A9070A30A90224
:1001D000031CEC28A60AE6280A30A9072908A5006E
:1001E00008003030A507A607A7072B087A212708A3
:1001F0007C2126087C2125087C21080000000000C5
:1002000000000000E00BFE2808006208E300000088
:10021000000000000000E30B0729E10B052908009E
:100220006608E7006508E800000000000000000024
:10023000E80B1429E70B1229E40B10290800D3302E
:10024000E400D330E5006030E600102108000730FC
:10025000E4003130E500F730E600102108009D3061
:10026000E1000730E200052108001930E4002F30DA
:10027000E5000330E60010210800E830E1003D30E1
:10028000E20005214D214D214D21023087005621EC
:10029000622164216C216E21080003308700562101
:1002A0009C30E1000430E2000521080087160000C0
:1002B00000000000000087120830E1002330E20057
:1002C0000521080028308829083088290C30882921
:1002D0000E3088290F308829013088290630882976
:1002E000023088291C308829183088291430882940
:1002F0001030882980388829AA002A0E0F398700F3
:10030000071656212A080F398700071656210800BC
:10031000AA002A0E0F39870056212A080F398700B4
:04032000562108005A
:02400E00E423A9
:02401000FF3F70
:00000001FF
