:020000040000FA
:02000000612875
:040002000034003492
:08000800F000030EF10083017A
:100010000A08F2006008F5006108F6006208F700BF
:100020006308F8006408F9006508FA006608FB0038
:100030006708FC006808FD009F2882075434653477
:100040006D3470342E3420346D34613478343A3465
:100050002034203420342034DF34433454346534A5
:100060006D3470342E343A3420342034203420342B
:100070002034203420342034DF3443348207EE34FB
:10008000DE34BE347E34ED34DD34BD347D34EB34C7
:10009000DB34BB347B34E734D734B734773482076E
:1000A0003034313432343334343435343634373414
:1000B000383439344134423443344434453446349A
:1000C0004034850186018701880189018316031761
:1000D0008830880089010313F43086008801CB3012
:1000E000870055308100F430960010309F00831255
:1000F0009E21A00120081D20DD21A00A103020062D
:10010000031D7A284030DB211030A00020081D207C
:10011000DD21A00A20302006031D8628C721B0015A
:100120000B30A800833081003E30A300DD309F00FB
:1001300006080B108B150B118B168B179E280B1DA9
:10014000DE28A30BDA289F143E30A300B00A9F18C4
:10015000A7281E08A90036214830AB004C21831681
:100160001E088312B10003013106031DBE282E3084
:10017000DD213030DD213030DD21DA28403031061C
:10018000031DC9282E30DD213230DD213530DD213F
:10019000DA2880303106031DD4282E30DD21353099
:1001A000DD213030DD21DA282E30DD213730DD2130
:1001B0003530DD21833081000B111C299821F0306E
:1001C0000605AE00AE0E8316043086008113C030E3
:1001D0008800FB3087008312860187018801C030C8
:1001E0000805AE0730300705AE07AF012F083E20E7
:1001F0002E0603190229AF0A10302F06031DF62818
:100200001030AF002808AB00DB212F084F20DD2184
:1002100098218316F430860081138801CB30870043
:100220008312AE01B201A80A0E302806031D1A2956
:100230000B30A80006080B1000007508E0007608D7
:10024000E1007708E2007808E3007908E4007A0822
:10025000E5007B08E6007C08E7007D08E8007208FE
:100260008A00710E8300F00E700E0900A501A60130
:10027000A7016430A902031C3F29A70A3929643069
:10028000A9070A30A902031C4729A60A41290A30F6
:10029000A9072908A50008003030A507A607A70769
:1002A0002B08DB212708DD212608DD212508DD219B
:1002B00008000000000000000000E00B59290800C1
:1002C0006208E3000000000000000000E30B622968
:1002D000E10B602908006608E7006508E8000000F7
:1002E000000000000000E80B6F29E70B6D29E40B0C
:1002F0006B290800D330E400D330E5006030E6001D
:100300006B2108000730E4003130E500F730E600EB
:100310006B2108009D30E1000730E20060210800F9
:100320001930E4002F30E5000330E6006B210800AF
:10033000C430E1000E30E20060210800E830E10046
:100340003D30E2006021AE21AE21AE2102308800B6
:10035000B721C321C521CD21CF210800033088005A
:10036000B7219C30E1000430E200602108008816CB
:10037000000000000000000088120830E100233077
:10038000E200602108002830E9290830E9290C3012
:10039000E9290E30E9290F30E9290130E929063031
:1003A000E9290230E9291C30E9291830E9291430FB
:1003B000E9291030E9298038E929AA002A0E0F39E5
:1003C00088000816B7212A080F3988000816B721B7
:1003D0000800AA002A0E0F398800B7212A080F3911
:0603E0008800B7210800AF
:02400E00E423A9
:02401000FF3F70
:00000001FF
