:020000040000FA
:02000000612875
:040002000034003492
:08000800F000030EF10083017A
:100010000A08F2006008F5006108F6006208F700BF
:100020006308F8006408F9006508FA006608FB0038
:100030006708FC006808FD009E2882075434653478
:100040006D3470342E3420346D34613478343A3465
:100050002034203420342034DF34433454346534A5
:100060006D3470342E343A3420342034203420342B
:100070002034203420342034DF34433482071E34CB
:100080002E344E348E341D342D344D348D341B3487
:100090002B344B348B34173427344734873482075E
:1000A0003034313432343334343435343634373414
:1000B000383439344134423443344434453446349A
:1000C0004034850186018701880189018316031761
:1000D0008830880089010313F0308600CB30870018
:1000E000880155308100960910309F008312B52198
:1000F000A00120081D20F421A00A10302006031DB5
:1001000079284030F2211030A00020081D20F42171
:10011000A00A20302006031D8528DE21B0010B3007
:10012000A800833081003E30A300DD309F00060828
:100130000B108B150B118B168B179D280B1DDE28B2
:10014000A30BDA289F143E30A300B00A9F18A628FC
:100150001E08B300A9003E214830AB00542183168D
:100160001E088312B10003013106031DBE282E3084
:10017000F4213030F4213030F421DA2840303106D7
:10018000031DC9282E30F4213230F4213530F421FA
:10019000DA2880303106031DD4282E30F421353082
:1001A000F4213030F421DA282E30F4213730F421D4
:1001B0003530F421833081000B112429A621F03041
:1001C0000605AE00AE0E8316C0308800FF308700F3
:1001D0000030860081138312F0308600303007052E
:1001E000AE07C0300805AE07AF012F083E202E062F
:1001F00003190129AF0A10302F06031DF52810300E
:10020000AF002808AB00F2212F084F20F421071A75
:100210000729871A0929081B0B29881B0D29A621E4
:100220008316F0308600CF30870088018113831257
:1002300088018701A80A0E302806031D22290B30E9
:10024000A800222906080B1000007508E0007608B7
:10025000E1007708E2007808E3007908E4007A0812
:10026000E5007B08E6007C08E7007D08E8007208EE
:100270008A00710E8300F00E700E0900A501A60120
:10028000A7016430A902031C4729A70A4129643049
:10029000A9070A30A902031C4F29A60A49290A30D6
:1002A000A9072908A50008003030A507A607A70759
:1002B0002B08F2212708F4212608F4212508F4212F
:1002C00008000000000000000000E00B61290800A9
:1002D0006208E3000000000000000000E30B6A2950
:1002E000E10B682908006608E7006508E8000000DF
:1002F000000000000000E80B7729E70B7529E40BEC
:1003000073290800D330E400D330E5006030E60004
:10031000732108000730E4003130E500F730E600D3
:10032000732108009D30E1000730E20068210800D9
:100330001930E4002F30E5000330E6007321080097
:10034000C430E1000E30E20068210800E830E1002E
:100350003D30E200682108005530E00061210800CE
:100360000230E000612100000800E830E1003D308B
:10037000E2006821C521C521C52102308800CE21B7
:10038000DA21DC21E421E621080003308800CE21B7
:100390009C30E1000430E20068210800881600006B
:1003A00000000000000088120830E1002330E20065
:1003B000682108002830002A0830002A0C30002A62
:1003C0000E30002A0F30002A0130002A0630002AA1
:1003D0000230002A1C30002A1830002A1430002A6B
:1003E0001030002A8038002AAA002A0E0F3988000F
:1003F0000816CE212A080F3988000816CE210800D9
:10040000AA002A0E0F398800CE212A080F39880049
:04041000CE210800F1
:02400E00E423A9
:02401000FF3F70
:00000001FF
