:020000040000FA
:02000000612875
:040002000034003492
:08000800F000030EF10083017A
:100010000A08F2006008F5006108F6006208F700BF
:100020006308F8006408F9006508FA006608FB0038
:100030006708FC006808FD009C288207543465347A
:100040006D3470342E3420346D34613478343A3465
:100050002034203420342034DF34433454346534A5
:100060006D3470342E343A3420342034203420342B
:100070002034203420342034DF3443348207EE34FB
:10008000DE34BE347E34ED34DD34BD347D34EB34C7
:10009000DB34BB347B34E734D734B734773482076E
:1000A0003034313432343334343435343634373414
:1000B000383439344134423443344434453446349A
:1000C0004034850186018701880189018316031761
:1000D0008830880089010313F0308600870155308D
:1000E0008100960910309F0083129021A001200802
:1000F0001D20CF21A00A10302006031D7728403094
:10010000CD211030A00020081D20CF21A00A2030D2
:100110002006031D8328B921B0010B30A8008330CD
:1001200081003E30A300DD309F0006080B108B15C8
:100130000B118B168B179B280B1DDB28A30BD728C5
:100140009F143E30A300B00A9F18A4281E08A900DF
:1001500028214830AB003E2183161E088312B100CF
:1001600003013106031DBB282E30CF213030CF21B3
:100170003030CF21D72840303106031DC6282E301D
:10018000CF213230CF213530CF21D72880303106F2
:10019000031DD1282E30CF213530CF213030CF2153
:1001A000D7282E30CF213730CF213530CF218330A3
:1001B00081000B110E298A21F0300605AE0083164E
:1001C0000F3086008113831286010F300605AE07BB
:1001D000AF012F083E202E060319F528AF0A103074
:1001E0002F06031DE9281030AF002808AB00CD21F1
:1001F0002F084F20CF210F300606031DFB288A2130
:100200008316F030860081138312A80A0E30280668
:10021000031D0C290B30A80006080B100000750800
:10022000E0007608E1007708E2007808E30079084A
:10023000E4007A08E5007B08E6007C08E7007D081A
:10024000E80072088A00710E8300F00E700E09003B
:10025000A501A601A7016430A902031C3129A70A40
:100260002B296430A9070A30A902031C3929A60AE0
:1002700033290A30A9072908A50008003030A5074E
:10028000A607A7072B08CD212708CF212608CF21B5
:100290002508CF2108000000000000000000E00B4E
:1002A0004B2908006208E300000000000000000085
:1002B000E30B5429E10B522908006608E7006508A2
:1002C000E8000000000000000000E80B6129E70BD7
:1002D0005F29E40B5D290800D330E400D330E5004A
:1002E0006030E6005D2108000730E4003130E500B1
:1002F000F730E6005D2108009D30E1000730E200A4
:10030000522108001930E4002F30E5000330E600E8
:100310005D210800C430E1000E30E20052210800E7
:10032000E830E1003D30E2005221A021A021A021CF
:1003300002308700A921B521B721BF21C1210800C2
:1003400003308700A9219C30E1000430E2005221F3
:100350000800871600000000000000008712083027
:10036000E1002330E200522108002830DB29083068
:10037000DB290C30DB290E30DB290F30DB29013083
:10038000DB290630DB290230DB291C30DB29183061
:10039000DB291430DB291030DB298038DB29AA0067
:1003A0002A0E0F3987000716A9212A080F3987005E
:1003B0000716A9210800AA002A0E0F398700A921D3
:0A03C0002A080F398700A921080060
:02400E00E423A9
:02401000FF3F70
:00000001FF
