:020000040000FA
:02000000612875
:040002000034003492
:08000800F000030EF10083017A
:100010000A08F2006008F5006108F6006208F700BF
:100020006308F8006408F9006508FA006608FB0038
:100030006708FC006808FD009E2882075434653478
:100040006D3470342E3420346D34613478343A3465
:100050002034203420342034DF34433454346534A5
:100060006D3470342E343A3420342034203420342B
:100070002034203420342034DF34433482071E34CB
:100080002E344E348E341D342D344D348D341B3487
:100090002B344B348B34173427344734873482075E
:1000A0003034313432343334343435343634373414
:1000B000383439344134423443344434453446349A
:1000C0004034850186018701880189018316031761
:1000D0008830880089010313F4308600CF30870010
:1000E000880155308100960910309F008312A421A9
:1000F000A00120081D20E321A00A10302006031DC6
:1001000079284030E1211030A00020081D20E32193
:10011000A00A20302006031D8528CD21B0010B3018
:10012000A800833081003E30A300DD309F00060828
:100130000B108B150B118B168B179D280B1DDD28B3
:10014000A30BD9289F143E30A300B00A9F18A628FD
:100150001E08A9003C214830AB00522183161E081E
:100160008312B10003013106031DBD282E30E321A7
:100170003030E3213030E321D92840303106031DEF
:10018000C8282E30E3213230E3213530E321D9284D
:1001900080303106031DD3282E30E3213530E32192
:1001A0003030E321D9282E30E3213730E3213530B8
:1001B000E321833081000B1122299E21F0300605B6
:1001C000AE00AE0E8316C0308800FF3087000F30BF
:1001D000860081138312F030860030300705AE07A9
:1001E000C0300805AE07AF012F083E202E060319C8
:1001F0000029AF0A10302F06031DF4281030AF007D
:100200002808AB00E1212F084F20E321071A062917
:10021000871A0829081B0A29881B0C299E21831686
:10022000F4308600CF308700880181138312880163
:100230008701A80A0E302806031D20290B30A800CC
:1002400006080B1000007508E0007608E10077084A
:10025000E2007808E3007908E4007A08E5007B080A
:10026000E6007C08E7007D08E80072088A00710E4D
:100270008300F00E700E0900A501A601A7016430ED
:10028000A902031C4529A70A3F296430A9070A309F
:10029000A902031C4D29A60A47290A30A9072908E3
:1002A000A50008003030A507A607A7072B08E12105
:1002B0002708E3212608E3212508E32108000000A0
:1002C000000000000000E00B5F2908006208E30066
:1002D0000000000000000000E30B6829E10B662924
:1002E00008006608E7006508E8000000000000005C
:1002F0000000E80B7529E70B7329E40B712908004E
:10030000D330E400D330E5006030E600712108000E
:100310000730E4003130E500F730E60071210800D5
:100320009D30E1000730E200662108001930E4004A
:100330002F30E5000330E60071210800C430E100F1
:100340000E30E20066210800E830E1003D30E200B6
:100350006621B421B421B42102308800BD21C92115
:10036000CB21D321D521080003308800BD219C304A
:10037000E1000430E2006621080088160000000059
:100380000000000088120830E1002330E2006621FE
:1003900008002830EF290830EF290C30EF290E3003
:1003A000EF290F30EF290130EF290630EF29023015
:1003B000EF291C30EF291830EF291430EF291030C5
:1003C000EF298038EF29AA002A0E0F398800081675
:1003D000BD212A080F3988000816BD210800AA008F
:1003E0002A0E0F398800BD212A080F398800BD2147
:0203F000080003
:02400E00E423A9
:02401000FF3F70
:00000001FF
