:020000040000FA
:02000000742862
:040002000034003492
:08000800F000030EF10083017A
:100010000A08F2006008F5006108F6006208F700BF
:100020006308F8006408F9006508FA006608FB0038
:100030006708FC006808FD00AB2882073F340634DF
:100040005B344F3466346D347D3407347F346F3421
:1000500077347C3439345E347934713482074334F4
:100060006F346E347434613464346F3472343A34BF
:1000700020342034203420342034203420345434AC
:10008000653463346C3461343A34203420342034A1
:1000900020342034203420342034203420342034C0
:1000A000203482071E342E344E348E341D342D34C9
:1000B0004D348D341B342B344B348B34173427346C
:1000C0004734873482073034313432343334343473
:1000D00035343634373438343934413442344334A7
:1000E0004434453446344034850186018701880113
:1000F000890183160317880189010313F0308600F4
:1001000087018801051085105530810096098312FA
:100110006921A00120082E20A821A00A1030200665
:10012000031D8A284030A6211030A00020082E2070
:10013000A821A00A20302006031D96289221A8019C
:10014000833081003E30A30006080B108B150B1185
:100150008B168B17AA280B1DBC28A30BB8283E3082
:10016000A300A80A2808A90007210D30AB001D2113
:10017000833081000B11ED2885016121F0300605E7
:10018000AE00AE0E8316F030880086018113831214
:10019000F03086000805AE07AF012F0851202E066B
:1001A0000319D928AF0A10302F06031DCD281030AF
:1001B000AF004F30AB00A6212F086220A8210030ED
:1001C0000806031DDF2861218316F03086008801B0
:1001D00081138312880106080B1000007508E000E7
:1001E0007608E1007708E2007808E3007908E40087
:1001F0007A08E5007B08E6007C08E7007D08E80057
:1002000072088A00710E8300F00E700E0900A501BD
:10021000A601A7016430A902031C1029A70A0A2914
:100220006430A9070A30A902031C1829A60A12295A
:100230000A30A9072908A50008003030A507A6073D
:10024000A7072B08A6212708A8212608A8212508EA
:10025000A82108000000000000000000E00B2A298F
:1002600008006208E3000000000000000000E30B4B
:100270003329E10B312908006608E7006508E8002A
:100280000000000000000000E80B4029E70B3E29B9
:10029000E40B3C290800D330E400D330E5006030A3
:1002A000E6003C2108000730E4003130E500F7307B
:1002B000E6003C2108009D30E1000730E2003121DA
:1002C00008001930E4002F30E5000330E6003C213F
:1002D0000800E830E1003D30E20031217921792148
:1002E00079210230870082218E21902198219A2144
:1002F00008000330870082219C30E1000430E200D6
:10030000312108008716000000000000000087125D
:100310000830E1002330E200312108002830B42900
:100320000830B4290C30B4290E30B4290F30B42968
:100330000130B4290630B4290230B4291C30B42964
:100340001830B4291430B4291030B4298038B429B5
:10035000AA002A0E0F398700071682212A080F39B2
:100360008700071682210800AA002A0E0F3987008D
:0C03700082212A080F3987008221080032
:02400E00E423A9
:02401000FF3F70
:00000001FF
