:020000040000FA
:02000000612875
:040002000034003492
:08000800F000030EF10083017A
:100010000A08F2006008F5006108F6006208F700BF
:100020006308F8006408F9006508FA006608FB0038
:100030006708FC006808FD00A02882075434653476
:100040006D3470342E3420346D34613478343A3465
:100050002034203420342034DF34433454346534A5
:100060006D3470342E343A3420342034203420342B
:100070002034203420342034DF34433482071E34CB
:100080002E344E348E341D342D344D348D341B3487
:100090002B344B348B34173427344734873482075E
:1000A00031343234333441343434353436344234F8
:1000B00037343834393443344534303446344434B6
:1000C0004034850186018701880189018316031761
:1000D0008830880089010313F0308600CF30870014
:1000E000880155308100F0309500960910309F004E
:1000F0008312ED22A00120081D202C23A00A10301D
:100100002006031D7B2840302A231030A000200841
:100110001D202C23A00A20302006031D872816232B
:10012000B0010B30A800833081003E30A300DD30E9
:100130009F0006080B108B150B118B168B179F2831
:100140008B183F290B1DE228A30BDE289F143E309D
:10015000A300B00A9F18AA281E08B300A9006422B1
:100160004830AB007A2283161E088312B1000301C7
:100170003106031DC2282E302C2330302C23303082
:100180002C23DE2840303106031DCD282E302C23B1
:1001900032302C2335302C23DE2880303106031DED
:1001A000D8282E302C2335302C2330302C23DE2839
:1001B0002E302C2337302C2335302C2383308100F4
:1001C0000B115529D122D122F0300605AE00AE0E1A
:1001D0008316C0308800FF3087000030860081130E
:1001E0008312F030860030300705AE07C0300805B6
:1001F000AE07AF012F083E202E0603190629AF0ACD
:1002000010302F06031DFA281030AF002808AB006D
:100210002A232F086F214F202C23071A0D29871A14
:100220000F29081B1129881B1329DF220D302806EE
:10023000031926298316F0308600CF308700880105
:100240008113F03095000B12831232298316F1309E
:100250008600CB30870088018113F13095008B1028
:100260000B16831288018701A80A0E302806031D89
:100270003B290B30A80006080B108B1055293708B6
:100280003302031844294E298316F0308600CF30FC
:1002900087008113F03095000B128312D1220715CD
:1002A000D12207118B1006080B1000007508E00022
:1002B0007608E1007708E2007808E3007908E400B6
:1002C0007A08E5007B08E6007C08E7007D08E80086
:1002D00072088A00710E8300F00E700E09000B3058
:1002E000280603197B290C3028060319A3290D3091
:1002F00028060319052AB401B501B601B7012F0874
:10030000B400013034020318862994290D303402D8
:100310000319622A0230B4001430B8000A30B7075B
:10032000B80B8F29013008000130B8003402031CDB
:100330009A29622A0130B4000A30B800B707B80B16
:100340009E29003008002F08B5000230340203193E
:10035000AA29AF29053035020318B429C12909306B
:1003600035020318DF29EC290D3035020319622A02
:100370000530B500B8000A30B707B80BBC29053006
:100380000800033035020319B4290430B8003808D6
:1003900035060319CE29CC29B803C7290430350204
:1003A0000319B8033808B5000A30B80A3808B50090
:1003B0000A30B7070A30B80BD9292F0808000D30CA
:1003C00035020319622A0930B500B8000A30B707B0
:1003D000B80BE7290A300800033035020319DF297A
:1003E0000830B800380835060319F929F729B80389
:1003F000F2290330B502031CB80A3808B5000A30E8
:10040000B707B80B002A2F0808002F08B6000230E3
:10041000340603190C2A612A05303506031D362AD5
:10042000112A053036020318162A232A0D30360207
:100430000319622A0530B600B8000130B707B80BBF
:100440001E2A05300800033036020319162A03302D
:100450003602031CB60A3608B8000130B707B803E5
:1004600000303802031D2D2A2F08080009303602FB
:10047000031C482A3B2A0D3036020319622A093030
:10048000B800B6000130B707B80B432A0A3008009D
:100490000330360203193B2A0930B8003808360603
:1004A000031D532A552AB8034E2A03303602031C73
:1004B000B60A3608B8000130B707B80B5B2A2F0818
:1004C0000800362A0D300800A501A601A7016430F6
:1004D000A902031C6D2AA70A672A6430A9070A30FB
:1004E000A902031C752AA60A6F2A0A30A90729083F
:1004F000A50008003030A507A607A7072B082A2368
:1005000027082C2326082C2325082C23080000006C
:10051000000000000000E00B872A08006208E300EA
:100520000000000000000000E30B902AE10B8E2A7F
:1005300008006608E7006508E80000000000000009
:100540000000E80B9D2AE70B9B2AE40B992A080080
:10055000D330E400D330E5006030E6009922080093
:100560000730E4003130E500F730E600992208005A
:100570009D30E1000730E2008E2208000430E100E7
:100580008E30E2008E22000008000830E1002330A7
:10059000E2008E22000008008E30E000872200007A
:1005A00008001930E4002F30E5000330E6009922FE
:1005B0000800C430E1000E30E2008E220800E8306E
:1005C000E1003D30E2008E2208002930E4000130D5
:1005D000E500B130E60099220800E830E1003D3046
:1005E000E2008E22FD22FD22FD2202308800062339
:1005F000122314231C231E23080003308800062323
:100600009C30E1000430E2008E22080088160000D1
:1006100000000000000088120830E1002330E200F2
:100620008E2208002830382B0830382B0C30382B1D
:100630000E30382B0F30382B0130382B0630382B4A
:100640000230382B1C30382B1830382B1430382B14
:100650001030382B8038382BAA002A0E0F3988002A
:10066000081606232A080F398800081606230800F2
:10067000AA002A0E0F39880006232A080F3988009D
:040680000623080045
:02400E00E423A9
:02401000FF3F70
:00000001FF
