:020000040000FA
:02000000742862
:040002000034003492
:08000800F000030EF10083017A
:100010000A08F2006008F5006108F6006208F700BF
:100020006308F8006408F9006508FA006608FB0038
:100030006708FC006808FD00AB2882073F340634DF
:100040005B344F3466346D347D3407347F346F3421
:1000500077347C3439345E347934713482074334F4
:100060006F346E347434613464346F3472343A34BF
:1000700020342034203420342034203420345434AC
:10008000653463346C3461343A34203420342034A1
:1000900020342034203420342034203420342034C0
:1000A000203482071E342E344E348E341D342D34C9
:1000B0004D348D341B342B344B348B34173427346C
:1000C0004734873482073034313432343334343473
:1000D00035343634373438343934413442344334A7
:1000E0004434453446344034850186018701880113
:1000F000890183160317880189010313F4308600F0
:10010000CF308700880155308100F4309609831282
:100110007621A00120082E20B521A00A103020064B
:10012000031D8A284030B3211030A00020082E2063
:10013000B521A00A20302006031D96289F21A80182
:10014000833081003E30A30006080B108B150B1185
:100150008B168B17AA280B1DBC28A30BB8283E3082
:10016000A300A80A2808A90014210D30AB002A21F9
:10017000833081000B11FA286E21F0300605AE00A5
:10018000AE0E8316C0308800FF3087000F30860027
:1001900081138312F030860030300705AE07C0307F
:1001A0000805AE07AF012F0851202E060319DF28DE
:1001B000AF0A10302F06031DD3281030AF004F3088
:1001C000AB00B3212F086220B521071AE528871A52
:1001D000E728081BE928881BEB286E218316F430DA
:1001E0008600CF3087008801811383128801870140
:1001F00006080B1000007508E0007608E10077089B
:10020000E2007808E3007908E4007A08E5007B085A
:10021000E6007C08E7007D08E80072088A00710E9D
:100220008300F00E700E0900A501A601A70164303D
:10023000A902031C1D29A70A17296430A9070A303F
:10024000A902031C2529A60A1F290A30A907290883
:10025000A50008003030A507A607A7072B08B32183
:100260002708B5212608B5212508B521080000007A
:10027000000000000000E00B372908006208E300DE
:100280000000000000000000E30B4029E10B3E29C4
:1002900008006608E7006508E800000000000000AC
:1002A0000000E80B4D29E70B4B29E40B4929080016
:1002B000D330E400D330E5006030E6004921080087
:1002C0000730E4003130E500F730E600492108004E
:1002D0009D30E1000730E2003E2108001930E400C3
:1002E0002F30E5000330E60049210800E830E10046
:1002F0003D30E2003E2186218621862102308800A1
:100300008F219B219D21A521A72108000330880072
:100310008F219C30E1000430E2003E210800881665
:10032000000000000000000088120830E1002330C7
:10033000E2003E2108002830C1290830C1290C30D4
:10034000C1290E30C1290F30C1290130C129063021
:10035000C1290230C1291C30C1291830C1291430EB
:10036000C1291030C1298038C129AA002A0E0F39AD
:10037000880008168F212A080F39880008168F2157
:100380000800AA002A0E0F3988008F212A080F3989
:0603900088008F21080027
:02400E00E423A9
:02401000FF3F70
:00000001FF
